:020000040800F2
:1000000000280020DD1000086D10000873100008A3
:10001000791000087F10000885100008000000001B
:100020000000000000000000000000008B1000082D
:100030009710000800000000A3100008AF1000088F
:1000400025110008251100082511000825110008B8
:1000500025110008251100082511000825110008A8
:100060002511000825110008251100082511000898
:100070002511000825110008251100082511000888
:100080002511000825110008251100082511000878
:100090002511000825110008251100082511000868
:1000A0002511000825110008251100082511000858
:1000B000BD100008251100080000000025110008EF
:1000C00025110008000000000000000025110008B4
:1000D00000000000251100082511000800000000A4
:1000E0002511000825110008251100080000000056
:1000F0000000000000000000000000000000000000
:0C01000000000000000000005FF808F1A3
:10010C0010B5054C237833B9044B13B10448AFF345
:10011C0000800123237010BD14000020000000009B
:10012C004027000808B5034B1BB103490348AFF344
:10013C00008008BD000000001800002040270008C7
:10014C0080B483B000AF00237B600DE0254A7B6850
:10015C0013441B785B08D9B2224A7B6813440A46C5
:10016C001A707B6801337B6008227B689342EDDB5D
:10017C0000233B600EE01B4A3B6813441B7863F082
:10018C007F03D9B2174A3B6813440A461A703B687E
:10019C0001333B6008223B689342ECDB124B1B683B
:1001AC00082B1AD1104B00221A600E4BE7221A7042
:1001BC000C4BC3225A700B4B99229A70094B992203
:1001CC00DA70084B81221A71064B81225A71054B49
:1001DC0099229A71034B9922DA7100BF0C37BD46F4
:1001EC0080BC7047000000203400002080B500AFB8
:1001FC0000224FF40071144801F07AFA00224FF4F7
:10020C008071114801F074FA002280210E4801F02F
:10021C006FFA002240210C4801F06AFA00222021DA
:10022C00094801F065FA00221021074801F060FA34
:10023C0000220821044801F05BFA00220421024844
:10024C0001F056FA00BF80BD000C014080B500AF34
:10025C0000220221144801F04BFA0022042112481A
:10026C0001F046FA002208210F4801F041FA002261
:10027C0010210D4801F03CFA002220210A4801F01F
:10028C0037FA00224021084801F032FA002280217E
:10029C00054801F02DFA00224FF48041024801F08C
:1002AC0027FA00BF80BD00BF0008014080B582B0B6
:1002BC0000AF0346FB71FB7903F00103002B04D064
:1002CC00012202212D4801F013FAFB795B08DBB205
:1002DC0003F00103002B04D001220421274801F074
:1002EC0007FAFB799B08DBB203F00103002B04D067
:1002FC0001220821214801F0FBF9FB79DB08DBB274
:10030C0003F00103002B04D0012210211B4801F043
:10031C00EFF9FB791B09DBB203F00103002B04D0CE
:10032C0001222021154801F0E3F9FB795B09DBB2CE
:10033C0003F00103002B04D0012240210F4801F0EF
:10034C00D7F9FB799B09DBB203F00103002B04D036
:10035C0001228021094801F0CBF9FB79DB09DBB2E2
:10036C0003F00103002B05D001224FF48041034818
:10037C0001F0BEF900BF0837BD4680BD0008014042
:10038C0080B582B000AF7860FFF730FFFFF75EFFFB
:10039C00324A7B6813441B781846FFF787FF7B684B
:1003AC00072B55D801A252F823F000BFD90300083F
:1003BC00EB030008FD0300080D0400081D040008F1
:1003CC002D0400083D0400084D04000801224FF4E0
:1003DC000071234801F08CF901237B6039E0012284
:1003EC004FF480711E4801F083F902237B6030E0EA
:1003FC00012280211A4801F07BF903237B6028E05D
:10040C0001224021164801F073F904237B6020E09F
:10041C0001222021124801F06BF905237B6018E0C2
:10042C00012210210E4801F063F906237B6010E0D5
:10043C00012208210A4801F05BF907237B6008E0E0
:10044C0001220421064801F053F900237B6000E0EF
:10045C0000BF00BF0837BD4680BD00BF00000020B4
:10046C00000C014080B582B000AF786039607B68C9
:10047C00002B2AD101224FF40051CE4801F038F95B
:10048C0001224FF48051CB4801F032F901224FF494
:10049C000061C84801F02CF901224FF48061C54875
:1004AC0001F026F901224FF40071C24801F020F945
:1004BC0001224FF48071BF4801F01AF901224FF468
:1004CC000041BD4801F014F9D3E17B68012B40F0E9
:1004DC00D0813B68092B2AD100224FF40051B5483A
:1004EC0001F006F900224FF48051B24801F000F9F6
:1004FC0000224FF40061AF4801F0FAF800224FF4EB
:10050C008061AC4801F0F4F801224FF40071A94865
:10051C0001F0EEF800224FF48071A64801F0E8F8E3
:10052C0000224FF40041A44801F0E2F8A1E13B683D
:10053C00082B2AD100224FF400519E4801F0D8F824
:10054C0000224FF480519B4801F0D2F800224FF466
:10055C000061984801F0CCF800224FF48061954876
:10056C0001F0C6F800224FF40071924801F0C0F877
:10057C0000224FF480718F4801F0BAF800224FF43A
:10058C0000418D4801F0B4F873E13B68072B2AD188
:10059C0000224FF40051874801F0AAF800224FF4D2
:1005AC008051844801F0A4F800224FF40061814886
:1005BC0001F09EF801224FF480617E4801F098F81A
:1005CC0001224FF400717B4801F092F801224FF4A4
:1005DC008071784801F08CF801224FF40041764884
:1005EC0001F086F845E13B68062B2AD100224FF436
:1005FC000051704801F07CF801224FF480516D4895
:10060C0001F076F800224FF400616A4801F070F8AE
:10061C0000224FF48061674801F06AF800224FF421
:10062C000071644801F064F800224FF48071614855
:10063C0001F05EF800224FF400415F4801F058F8D9
:10064C0017E13B68052B2AD100224FF40051594881
:10065C0001F04EF801224FF48051564801F048F851
:10066C0000224FF40061534801F042F800224FF48D
:10067C008061504801F03CF801224FF400714D4864
:10068C0001F036F800224FF480714A4801F030F83E
:10069C0000224FF40041484801F02AF8E9E03B6899
:1006AC00042B2AD101224FF40051424801F020F8CA
:1006BC0000224FF480513F4801F01AF800224FF409
:1006CC0000613C4801F014F801224FF48061394874
:1006DC0001F00EF801224FF40071364801F008F8D1
:1006EC0000224FF48071334801F002F800224FF4DD
:1006FC000041314800F0FCFFBBE03B68032B2AD1E2
:10070C0000224FF400512B4800F0F2FF00224FF46E
:10071C008051284800F0ECFF00224FF4006125487E
:10072C0000F0E6FF00224FF48061224800F0E0FF69
:10073C0001224FF400711F4800F0DAFF01224FF440
:10074C0080711C4800F0D4FF00224FF400411A487D
:10075C0000F0CEFF8DE03B68022B2FD100224FF42E
:10076C000051144800F0C4FF00224FF4805111488E
:10077C0000F0BEFF01224FF400610E4800F0B8FFFC
:10078C0000224FF480610B4800F0B2FF00224FF4BE
:10079C000071084800F0ACFF01224FF4807105484D
:1007AC0000F0A6FF00224FF40041034800F0A0FF28
:1007BC005FE000BF00080140000C01403B68012BCA
:1007CC002AD101224FF400512C4800F091FF002255
:1007DC004FF48051294800F08BFF00224FF4006148
:1007EC00264800F085FF01224FF48061234800F079
:1007FC007FFF01224FF40071204800F079FF0122A5
:10080C004FF480711D4800F073FF01224FF400413A
:10081C001B4800F06DFF2CE03B68002B29D1002217
:10082C004FF40051154800F063FF00224FF4805143
:10083C00124800F05DFF00224FF400610F4800F0F9
:10084C0057FF00224FF480610C4800F051FF00224A
:10085C004FF40071094800F04BFF00224FF48071F7
:10086C00064800F045FF01224FF40041044800F017
:10087C003FFF00BF0837BD4680BD00BF00080140E8
:10088C00000C014080B582B000AF78606346C7F8B9
:10089C0000C07A68032A23D801A151F822F000BFC6
:1008AC00BD080008C9080008D5080008E1080008C0
:1008BC001B6919460120FFF7D5FD11E05B6919464C
:1008CC000120FFF7CFFD0BE09B6919460120FFF7D4
:1008DC00C9FD05E0DB6919460120FFF7C3FD00BF28
:1008EC0000BF0837BD4680BD90B58BB000AF07F197
:1008FC0038033B6200F012FC00F0A4F900F02AFA75
:10090C0000F0DCF9424801F051FB022000F0ACFA97
:10091C00022000F0BDFA022000F0CEFA022000F016
:10092C00DFFA00237B603B4B07F110040FCB84E80C
:10093C000F000F23FB600823BB6032237B624FF454
:10094C00FA733B60344B1B68012B21D17B6A01335A
:10095C007B627B6A3B2B04DD00237B62BB6801332B
:10096C00BB60BB683B2B04DD0023BB60FB68013321
:10097C00FB60FB68172B01DD0023FB603B68274AFB
:10098C0082FB03129210DB17D31A184600F080FA80
:10099C00234B1B68012B0ED14FF48061214800F0D2
:1009AC00BFFE3B681D4A82FB0312D210DB17D31A21
:1009BC00184600F081FA3B469C4600F03BF81A4B77
:1009CC001B68012BBED1194B1B685A1C17490A60B6
:1009DC001846FFF7D5FC154B1B680822934212DB17
:1009EC00124B00221A60FFF7ABFB114B1B68013353
:1009FC000F4A13600E4B1B68082B04D1FFF7A0FBAA
:100A0C000B4B00221A600A2000F06AFA9AE700BF2A
:100A1C0058000020582700084000002067666666D2
:100A2C0048000020000C0140500000203000002045
:100A3C003400002090B583B000AF6446C7F804C002
:100A4C00E3687D4A82FB03129210DB17D31A2361F1
:100A5C00E168794B83FB01239A10CB17D21A13460A
:100A6C009B0013445B00CA1A6261A368724A82FB42
:100A7C0003129210DB17D31AA361A1686E4B83FB90
:100A8C0001239A10CB17D21A13469B0013445B0018
:100A9C00CA1AE2616368032B00F2C98001A252F802
:100AAC0023F000BFC10A00081D0B0008790B0008D9
:100ABC00D30B0008614B1B68012B40F0B180A4469E
:100ACC000020FFF7DFFE00224FF400515C4800F0DD
:100ADC000FFE01224FF48041594800F009FE01221B
:100AEC004FF48051564800F003FE01224FF4006190
:100AFC00534800F0FDFD0123636023684E4A82FBDE
:100B0C0003121211DB17D31A184600F0ADF987E067
:100B1C004A4B1B68012B40F08580A4460120FFF74F
:100B2C00B1FE01224FF40051454800F0E1FD0022D6
:100B3C004FF48041424800F0DBFD01224FF480511C
:100B4C003F4800F0D5FD01224FF400613C4800F015
:100B5C00CFFD022363602368374A82FB0312121114
:100B6C00DB17D31A184600F07FF95BE0334B1B6898
:100B7C00012B59D1A4460220FFF784FE01224FF429
:100B8C0000512F4800F0B4FD01224FF480412C4855
:100B9C0000F0AEFD00224FF48051294800F0A8FD72
:100BAC0001224FF40061264800F0A2FD032363608C
:100BBC002368214A82FB03121211DB17D31A184641
:100BCC0000F052F930E01D4B1B68012B2ED1A446CE
:100BDC000320FFF757FE01224FF40051184800F094
:100BEC0087FD01224FF48041154800F081FD012260
:100BFC004FF48051124800F07BFD00224FF400614D
:100C0C000F4800F075FD0023636023680A4A82FBDD
:100C1C0003121211DB17D31A184600F025F905E060
:100C2C0000BF04E000BF02E000BF00E000BF00BF57
:100C3C000C37BD4690BD00BF676666663800002065
:100C4C00000C014080B590B000AF07F118032822CA
:100C5C000021184601F066FD3B1D00221A605A6007
:100C6C009A60DA601A610223BB610123BB62102314
:100C7C00FB6200237B6307F11803184600F06AFD42
:100C8C000346002B01D000F0E9F80F237B60002312
:100C9C00BB600023FB6000233B6100237B613B1D99
:100CAC000021184600F0D6FF0346002B01D000F0BF
:100CBC00D5F800BF4037BD4680BD000080B586B07A
:100CCC0000AF07F1080300221A605A609A60DA60DC
:100CDC003B4600221A605A601D4B4FF080421A604E
:100CEC001B4B41F63F725A60194B00229A60184B0D
:100CFC000922DA60164B00221A61154B00229A6108
:100D0C00134801F003F90346002B01D000F0A6F8BC
:100D1C004FF48053BB6007F1080319460C4801F0EF
:100D2C0099FA0346002B01D000F098F800233B60A1
:100D3C0000237B603B461946054801F065FC0346E1
:100D4C00002B01D000F08AF800BF1837BD4680BDDB
:100D5C005800002080B588B000AF07F110030022C6
:100D6C001A605A609A60DA60334B9B69324A43F0DE
:100D7C0010039361304B9B6903F01003FB60FB681D
:100D8C002D4B9B692C4A43F0040393612A4B9B69BE
:100D9C0003F00403BB60BB68274B9B69264A43F0F6
:100DAC0008039361244B9B6903F008037B607B6809
:100DBC0000224FF46041214800F09AFC00224FF6CB
:100DCC00FE711F4800F094FC00224FF6FF711D4885
:100DDC0000F08EFC4FF460433B6101237B610023E8
:100DEC00BB610223FB6107F110031946134800F0A5
:100DFC0005FB4FF6FE733B6101237B610023BB6156
:100E0C000223FB6107F1100319460D4800F0F6FAB6
:100E1C004FF6FF733B6101237B610023BB6102230F
:100E2C00FB6107F110031946064800F0E7FA00BF12
:100E3C002037BD4680BD00BF0010024000100140AD
:100E4C0000080140000C014080B582B000AF786012
:100E5C0000F05AF800BF0837BD4680BD80B400AF23
:100E6C0072B600BFFEE7000080B483B000AF7860BC
:100E7C00054A7B681360054B00221A6000BF0C37D3
:100E8C00BD4680BC704700BF3C00002038000020ED
:100E9C0080B483B000AF7860054A7B681360054B63
:100EAC0000221A6000BF0C37BD4680BC704700BFE3
:100EBC00440000204000002080B483B000AF786074
:100ECC00054A7B681360054B00221A6000BF0C3783
:100EDC00BD4680BC704700BF4C000020480000207D
:100EEC0080B483B000AF7860054A7B681360054B13
:100EFC0000221A6000BF0C37BD4680BC704700BF93
:100F0C00540000205000002080B400AF214B1B681F
:100F1C00002B0BDD1F4B1B68013B1E4A13601D4B46
:100F2C001B68002B02DC1C4B01221A601B4B1B683C
:100F3C00002B0BDD194B1B68013B184A1360174B38
:100F4C001B68002B02DC164B01221A60154B1B6828
:100F5C00002B0BDD134B1B68013B124A1360114B2A
:100F6C001B68002B02DC104B01221A600F4B1B6814
:100F7C00002B0BDD0D4B1B68013B0C4A13600B4B1C
:100F8C001B68002B02DC0A4B01221A6000BFBD4615
:100F9C0080BC70473C00002038000020440000203A
:100FAC00400000204C00002048000020540000208D
:100FBC005000002080B485B000AF154B9B69144ADB
:100FCC0043F001039361124B9B6903F00103BB6077
:100FDC00BB680F4BDB690E4A43F08053D3610C4B5B
:100FEC00DB6903F080537B607B680A4B5B68FB60BA
:100FFC00FB6823F0E063FB60FB6843F08063FB60FD
:10100C00044AFB68536000BF1437BD4680BC704770
:10101C00001002400000014080B584B000AF786041
:10102C007B681B68B3F1804F13D10C4BDB690B4A07
:10103C0043F00103D361094BDB6903F00103FB604F
:10104C00FB68002200211C2000F0A1F91C2000F0FC
:10105C00BAF900BF1037BD4680BD00BF001002407A
:10106C0080B400AFFEE780B400AFFEE780B400AF01
:10107C00FEE780B400AFFEE780B400AFFEE780B4BB
:10108C0000AF00BFBD4680BC704780B400AF00BF4E
:10109C00BD4680BC704780B400AF00BFBD4680BC6D
:1010AC00704780B500AF00F07FF800BF80BD000036
:1010BC0080B500AF024800F0C5FF00BF80BD00BF87
:1010CC005800002080B400AF00BFBD4680BC704704
:1010DC00FFF7F8FF0B480C490C4A002302E0D458E8
:1010EC00C4500433C4188C42F9D3094A094C002368
:1010FC0001E013600432A242FBD301F0EFFAFFF7D8
:10110C00F3FB704700000020140000209427000817
:10111C0014000020A4000020FEE7000080B500AF02
:10112C00084B1B68074A43F010031360032000F0C0
:10113C0023F90F2000F008F8FFF73CFF00231846B6
:10114C0080BD00BF0020024080B582B000AF786047
:10115C00124B1A68124B1B7819464FF47A73B3FB77
:10116C00F1F3B2FBF3F3184600F03BF90346002B06
:10117C0001D001230EE07B680F2B0AD8002279687E
:10118C004FF0FF3000F003F9064A7B681360002330
:10119C0000E0012318460837BD4680BD080000203A
:1011AC00100000200C00002080B400AF054B1B7811
:1011BC001A46054B1B681344034A136000BFBD4617
:1011CC0080BC704710000020A000002080B400AF4D
:1011DC00024B1B681846BD4680BC7047A00000201F
:1011EC0080B485B000AF78607B6803F00703FB60C8
:1011FC000C4BDB68BB60BA684FF6FF031340BB6057
:10120C00FB681A02BB68134343F0BF6343F400331B
:10121C00BB60044ABB68D36000BF1437BD4680BCBA
:10122C00704700BF00ED00E080B400AF044BDB68FA
:10123C001B0A03F007031846BD4680BC704700BF6D
:10124C0000ED00E080B483B000AF0346FB7197F96A
:10125C000730002B0BDBFB7903F01F02064997F9D3
:10126C0007305B09012000FA02F241F8232000BF8D
:10127C000C37BD4680BC704700E100E080B483B001
:10128C0000AF03463960FB7197F90730002B0ADB7E
:10129C003B68DAB20C4997F907301201D2B20B4411
:1012AC0083F800230AE03B68DAB20849FB7903F0C3
:1012BC000F03043B1201D2B20B441A7600BF0C3759
:1012CC00BD4680BC704700BF00E100E000ED00E0CF
:1012DC0080B489B000AFF860B9607A60FB6803F045
:1012EC000703FB61FB69C3F10703042B28BF04232D
:1012FC00BB61FB690433062B02D9FB69033B00E09D
:10130C0000237B614FF0FF32BB6902FA03F3DA432F
:10131C00BB681A407B699A404FF0FF317B6901FA38
:10132C0003F3D9437B680B40134318462437BD465F
:10133C0080BC704780B582B000AF78607B68013BA1
:10134C00B3F1807F01D301230FE00A4A7B68013B94
:10135C0053600F214FF0FF30FFF790FF054B002239
:10136C009A60044B07221A60002318460837BD46C2
:10137C0080BD00BF10E000E080B582B000AF7860A7
:10138C007868FFF72DFF00BF0837BD4680BD80B5DC
:10139C0086B000AF0346B9607A60FB7300237B61B3
:1013AC00FFF742FF78617A68B9687869FFF790FFB8
:1013BC00024697F90F3011461846FFF75FFF00BF42
:1013CC001837BD4680BD80B582B000AF0346FB71B7
:1013DC0097F907301846FFF735FF00BF0837BD46B1
:1013EC0080BD80B582B000AF78607868FFF7A2FF4F
:1013FC00034618460837BD4680BD000080B48BB04C
:10140C0000AF7860396000237B6200233B6248E1C7
:10141C0001227B6A02FA03F3FB613B681B68FA69E1
:10142C001340BB61BA69FB699A4240F037813B6853
:10143C005B68A34A93425ED0A14A934275D8A14AF5
:10144C00934258D09F4A93426FD89F4A934252D0AE
:10145C009D4A934269D89D4A93424CD09B4A9342F1
:10146C0063D89B4A934246D0994A93425DD8122B3B
:10147C002AD8122B59D801A252F823F003150008D0
:10148C00DD140008EF1400083115000837150008AA
:10149C0037150008371500083715000837150008F0
:1014AC0037150008371500083715000837150008E0
:1014BC0037150008371500083715000837150008D0
:1014CC00E5140008F9140008824A934213D02CE06A
:1014DC003B68DB683B6229E03B68DB6804333B62BA
:1014EC0024E03B68DB6808333B621FE03B68DB6849
:1014FC000C333B621AE03B689B68002B02D104233F
:10150C003B6213E03B689B68012B05D108233B62CF
:10151C007B68FA691A6109E008233B627B68FA6907
:10152C005A6103E000233B6200E000BFBB69FF2B64
:10153C0001D87B6801E07B6804337B61BB69FF2BBE
:10154C0002D87B6A9B0002E07B6A083B9B003B61F4
:10155C007B691A680F213B6901FA03F3DB431A40DC
:10156C00396A3B6901FA03F31A437B691A603B68D9
:10157C005B6803F08053002B00F09080564B9B6906
:10158C00554A43F001039361534B9B6903F00103EC
:10159C00BB60BB68514A7B6A9B08023352F823300C
:1015AC00FB607B6A03F003039B000F2202FA03F338
:1015BC00DB43FA681340FB607B68494A93420DD0C9
:1015CC007B68484A934207D07B68474A934201D1D3
:1015DC00022304E0032302E0012300E000237A6AE3
:1015EC0002F0030292009340FA681343FB603B49FC
:1015FC007B6A9B080233FA6841F823203B685B68DE
:10160C0003F48013002B06D0384B9A683749BB691A
:10161C0013438B6006E0354B9A68BB69DB43334957
:10162C0013408B603B685B6803F40013002B06D0FF
:10163C002E4BDA682D49BB691343CB6006E02B4B6C
:10164C00DA68BB69DB4329491340CB603B685B68B4
:10165C0003F40033002B06D0244B5A682349BB6992
:10166C0013434B6006E0214B5A68BB69DB431F49AF
:10167C0013404B603B685B6803F48033002B06D04F
:10168C001A4B1A681949BB6913430B6006E0174BD8
:10169C001A68BB69DB43154913400B607B6A013345
:1016AC007B623B681A687B6A22FA03F3002B7FF497
:1016BC00AFAE00BF00BF2C37BD4680BC704700BF2B
:1016CC000000321000003110000022100000211028
:1016DC000000121000001110001002400000014028
:1016EC0000080140000C01400010014000040140C2
:1016FC0080B483B000AF78600B467B8013467B7060
:10170C007B78002B03D07A887B681A6103E07B8896
:10171C001A047B681A6100BF0C37BD4680BC704749
:10172C0080B485B000AF78600B467B807B68DB684B
:10173C00FB607A88FB6813401A04FB68D9437B88EA
:10174C000B401A437B681A6100BF1437BD4680BC3E
:10175C007047000080B586B000AF78607B68002BC6
:10176C0001D101236CE27B681B6803F00103002BA1
:10177C0000F08780924B5B6803F00C03042B0CD0B9
:10178C008F4B5B6803F00C03082B12D18C4B5B68FE
:10179C0003F48033B3F5803F0BD1894B1B6803F402
:1017AC000033002B6CD07B685B68002B68D1012365
:1017BC0046E27B685B68B3F5803F06D1804B1B68C3
:1017CC007F4A43F4803313602EE07B685B68002B08
:1017DC000CD17B4B1B687A4A23F480331360784B13
:1017EC001B68774A23F4802313601DE07B685B68D9
:1017FC00B3F5A02F0CD1724B1B68714A43F48023B4
:10180C0013606F4B1B686E4A43F4803313600BE01C
:10181C006B4B1B686A4A23F480331360684B1B685C
:10182C00674A23F4802313607B685B68002B13D01A
:10183C00FFF7CCFC386108E0FFF7C8FC02463B69B7
:10184C00D31A642B01D90323FAE15D4B1B6803F413
:10185C000033002BF0D014E0FFF7B8FC386108E03F
:10186C00FFF7B4FC02463B69D31A642B01D903235E
:10187C00E6E1534B1B6803F40033002BF0D100E07E
:10188C0000BF7B681B6803F00203002B63D04C4B3A
:10189C005B6803F00C03002B0BD0494B5B6803F027
:1018AC000C03082B1CD1464B5B6803F48033002BD4
:1018BC0016D1434B1B6803F00203002B05D07B6849
:1018CC001B69012B01D00123BAE13D4B1B6823F0AE
:1018DC00F8027B685B69DB00394913430B603AE023
:1018EC007B681B69002B20D0364B01221A60FFF756
:1018FC006DFC386108E0FFF769FC02463B69D31ABE
:10190C00022B01D903239BE12D4B1B6803F002032F
:10191C00002BF0D02A4B1B6823F0F8027B685B6924
:10192C00DB00274913430B6015E0264B00221A609D
:10193C00FFF74CFC386108E0FFF748FC02463B69B6
:10194C00D31A022B01D903237AE11D4B1B6803F038
:10195C000203002BF0D17B681B6803F00803002BFB
:10196C003AD07B689B69002B19D0174B01221A6067
:10197C00FFF72CFC386108E0FFF728FC02463B69B6
:10198C00D31A022B01D903235AE10D4B5B6A03F0E6
:10199C000203002BF0D0012000F09AFA1CE00A4B55
:1019AC0000221A60FFF712FC38610FE0FFF70EFC03
:1019BC0002463B69D31A022B08D9032340E100BF2E
:1019CC000010024000004242800442429E4B5B6A7F
:1019DC0003F00203002BE9D17B681B6803F00403BE
:1019EC00002B00F0A6800023FB75974BDB6903F0FE
:1019FC008053002B0DD1944BDB69934A43F08053F9
:101A0C00D361914BDB6903F08053BB60BB6801234E
:101A1C00FB758E4B1B6803F48073002B18D18B4B1A
:101A2C001B688A4A43F480731360FFF7CFFB38615D
:101A3C0008E0FFF7CBFB02463B69D31A642B01D9B4
:101A4C000323FDE0814B1B6803F48073002BF0D063
:101A5C007B68DB68012B06D17B4B1B6A7A4A43F00F
:101A6C00010313622DE07B68DB68002B0CD1764BF5
:101A7C001B6A754A23F001031362734B1B6A724A8B
:101A8C0023F0040313621CE07B68DB68052B0CD18C
:101A9C006D4B1B6A6C4A43F0040313626A4B1B6A5E
:101AAC00694A43F0010313620BE0674B1B6A664AF9
:101ABC0023F001031362644B1B6A634A23F0040393
:101ACC0013627B68DB68002B15D0FFF77FFB386156
:101ADC000AE0FFF77BFB02463B69D31A41F28832DE
:101AEC00934201D90323ABE0574B1B6A03F002036B
:101AFC00002BEED014E0FFF769FB38610AE0FFF72A
:101B0C0065FB02463B69D31A41F28832934201D9F4
:101B1C00032395E04C4B1B6A03F00203002BEED120
:101B2C00FB7D012B05D1484BDB69474A23F08053E1
:101B3C00D3617B68DB69002B00F08180424B5B68D2
:101B4C0003F00C03082B61D07B68DB69022B46D1B8
:101B5C003F4B00221A60FFF739FB386108E0FFF7B2
:101B6C0035FB02463B69D31A022B01D9032367E0EC
:101B7C00354B1B6803F00073002BF0D17B681B6A9C
:101B8C00B3F5803F08D1304B5B6823F400327B689F
:101B9C009B682D4913434B602B4B5B6823F47412E9
:101BAC007B68196A7B685B6A0B43274913434B605C
:101BBC00274B01221A60FFF709FB386108E0FFF799
:101BCC0005FB02463B69D31A022B01D9032337E0EC
:101BDC001D4B1B6803F00073002BF0D02FE01C4B47
:101BEC0000221A60FFF7F2FA386108E0FFF7EEFA0C
:101BFC0002463B69D31A022B01D9032320E0124B76
:101C0C001B6803F00073002BF0D118E07B68DB69D4
:101C1C00012B01D1012313E00B4B5B68FB60FB68CC
:101C2C0003F480327B681B6A9A4206D1FB6803F48A
:101C3C0070127B685B6A9A4201D0012300E000239A
:101C4C0018461837BD4680BD001002400070004099
:101C5C006000424280B584B000AF786039607B6828
:101C6C00002B01D10123D0E06A4B1B6803F0070362
:101C7C003A689A4210D9674B1B6823F007026549F2
:101C8C003B6813430B60634B1B6803F007033A6814
:101C9C009A4201D00123B8E07B681B6803F0020371
:101CAC00002B20D07B681B6803F00403002B05D0AD
:101CBC00594B5B68584A43F4E06353607B681B687C
:101CCC0003F00803002B05D0534B5B68524A43F4D6
:101CDC0060535360504B5B6823F0F0027B689B6849
:101CEC004D4913434B607B681B6803F00103002BC9
:101CFC0040D07B685B68012B07D1474B1B6803F412
:101D0C000033002B15D101237FE07B685B68022B2D
:101D1C0007D1414B1B6803F00073002B09D1012341
:101D2C0073E03D4B1B6803F00203002B01D1012330
:101D3C006BE0394B5B6823F003027B685B683649C8
:101D4C0013434B60FFF742FAF8600AE0FFF73EFAE4
:101D5C000246FB68D31A41F28832934201D903231D
:101D6C0053E02D4B5B6803F00C027B685B689B00B7
:101D7C009A42EBD1274B1B6803F007033A689A424F
:101D8C0010D2244B1B6823F0070222493B681343F3
:101D9C000B60204B1B6803F007033A689A4201D092
:101DAC00012332E07B681B6803F00403002B08D08E
:101DBC00194B5B6823F4E0627B68DB6816491343BC
:101DCC004B607B681B6803F00803002B09D0124B97
:101DDC005B6823F460527B681B69DB000E4913437C
:101DEC004B6000F021F802460B4B5B681B0903F0BB
:101DFC000F030A49CB5C22FA03F3094A1360094B1F
:101E0C001B681846FFF7A0F9002318461037BD468B
:101E1C0080BD00BF0020024000100240682700086F
:101E2C00080000200C00002080B487B000AF002315
:101E3C00FB600023BB6000237B6100237B600023DD
:101E4C003B611E4B5B68FB60FB6803F00C03042BCF
:101E5C0002D0082B03D027E0194B3B6127E0FB682D
:101E6C009B0C03F00F03174AD35C7B60FB6803F4F5
:101E7C008033002B10D0114B5B685B0C03F001031B
:101E8C00114AD35CBB607B680D4A02FB03F2BB6852
:101E9C00B2FBF3F37B6104E07B680C4A02FB03F3B7
:101EAC007B617B693B6102E0054B3B6100BF3B6999
:101EBC0018461C37BD4680BC704700BF001002405E
:101ECC0000127A00782700088827000800093D00D6
:101EDC0080B485B000AF78600A4B1B680A4AA2FB3D
:101EEC0003235B0A7A6802FB03F3FB6000BFFB6809
:101EFC005A1EFA60002BF9D100BF00BF1437BD4643
:101F0C0080BC704708000020D34D621080B582B0B1
:101F1C0000AF78607B68002B01D1012341E07B6826
:101F2C0093F83D30DBB2002B06D17B68002283F89E
:101F3C003C207868FFF770F87B68022283F83D201C
:101F4C007B681A687B6804331946104600F06EFAF9
:101F5C007B68012283F846207B68012283F83E20AF
:101F6C007B68012283F83F207B68012283F84020A4
:101F7C007B68012283F841207B68012283F8422090
:101F8C007B68012283F843207B68012283F844207C
:101F9C007B68012283F845207B68012283F83D2071
:101FAC00002318460837BD4680BD000080B485B0BC
:101FBC0000AF78607B6893F83D30DBB2012B01D029
:101FCC00012335E07B68022283F83D207B681B6887
:101FDC00DA687B681B6842F00102DA607B681B6878
:101FEC00164A934209D07B681B68B3F1804F04D02A
:101FFC007B681B68124A934211D17B681B689B68F3
:10200C0003F00703FB60FB68062B10D07B681B6892
:10201C001A687B681B6842F001021A6007E07B6853
:10202C001B681A687B681B6842F001021A60002367
:10203C0018461437BD4680BC704700BF002C0140C9
:10204C000004004080B582B000AF78607B681B68EC
:10205C001B6903F00203022B22D17B681B68DB682F
:10206C0003F00203022B1BD17B681B686FF002028A
:10207C001A617B6801221A777B681B689B6903F0E5
:10208C000303002B03D0786800F0B4F905E07868FE
:10209C0000F0A7F9786800F0B6F97B6800221A778F
:1020AC007B681B681B6903F00403042B22D17B683B
:1020BC001B68DB6803F00403042B1BD17B681B68D3
:1020CC006FF004021A617B6802221A777B681B6826
:1020DC009B6903F44073002B03D0786800F08AF9F5
:1020EC0005E0786800F07DF9786800F08CF97B6881
:1020FC0000221A777B681B681B6903F00803082B06
:10210C0022D17B681B68DB6803F00803082B1BD10A
:10211C007B681B686FF008021A617B6804221A77CF
:10212C007B681B68DB6903F00303002B03D0786822
:10213C0000F060F905E0786800F053F9786800F079
:10214C0062F97B6800221A777B681B681B6903F0B5
:10215C001003102B22D17B681B68DB6803F0100383
:10216C00102B1BD17B681B686FF010021A617B6807
:10217C0008221A777B681B68DB6903F44073002B19
:10218C0003D0786800F036F905E0786800F029F99A
:10219C00786800F038F97B6800221A777B681B6836
:1021AC001B6903F00103012B0ED17B681B68DB68F4
:1021BC0003F00103012B07D17B681B686FF0010250
:1021CC001A617868FEF740FE7B681B681B6903F098
:1021DC008003802B0ED17B681B68DB6803F08003C7
:1021EC00802B07D17B681B686FF080021A617868BE
:1021FC0000F06BFA7B681B681B6903F04003402BF3
:10220C000ED17B681B68DB6803F04003402B07D1C1
:10221C007B681B686FF040021A61786800F0FCF86C
:10222C007B681B681B6903F02003202B0ED17B6895
:10223C001B68DB6803F02003202B07D17B681B682D
:10224C006FF020021A61786800F036FA00BF083788
:10225C00BD4680BD80B584B000AF78603960002386
:10226C00FB737B6893F83C30012B01D10223B4E063
:10227C007B68012283F83C207B68022283F83D2096
:10228C007B681B689B68BB60BB6823F07703BB60F3
:10229C00BB6823F47F43BB607B681B68BA689A6099
:1022AC003B681B68B3F5005F3ED0B3F5005F00F2EE
:1022BC008780B3F5805F00F08680B3F5805F7FD8B0
:1022CC00702B1AD0702B7BD8602B50D0602B77D80A
:1022DC00502B3CD0502B73D8402B58D0402B6FD860
:1022EC00302B64D0302B6BD8202B60D0202B67D8B0
:1022FC00002B5CD0102B5AD062E07B6818683B68CE
:10230C0099683B685A683B68DB6800F05EF97B684B
:10231C001B689B68BB60BB6843F07703BB607B6842
:10232C001B68BA689A604FE07B6818683B689968CC
:10233C003B685A683B68DB6800F047F97B681B68B0
:10234C009A687B681B6842F480429A603CE07B6828
:10235C0018683B6859683B68DB681A4600F0BEF8A1
:10236C007B681B685021184600F015F92CE07B683F
:10237C0018683B6859683B68DB681A4600F0DCF863
:10238C007B681B686021184600F005F91CE07B682F
:10239C0018683B6859683B68DB681A4600F09EF881
:1023AC007B681B684021184600F0F5F80CE07B6850
:1023BC001A683B681B681946104600F0ECF803E0FD
:1023CC000123FB7300E000BF7B68012283F83D20F2
:1023DC007B68002283F83C20FB7B18461037BD46F7
:1023EC0080BD80B483B000AF786000BF0C37BD46B1
:1023FC0080BC704780B483B000AF786000BF0C37EE
:10240C00BD4680BC704780B483B000AF786000BF1D
:10241C000C37BD4680BC704780B483B000AF786089
:10242C0000BF0C37BD4680BC7047000080B485B03F
:10243C0000AF786039607B681B68FB607B68254A5D
:10244C00934207D07B68B3F1804F03D07B68224A5C
:10245C00934208D1FB6823F07003FB603B685B6818
:10246C00FA681343FB607B681A4A934207D07B6877
:10247C00B3F1804F03D07B68174A934208D1FB68B5
:10248C0023F44073FB603B68DB68FA681343FB6022
:10249C00FB6823F080023B685B691343FB607B683D
:1024AC00FA681A603B689A687B68DA623B681A685B
:1024BC007B689A627B68074A934203D13B681A692E
:1024CC007B681A637B6801225A6100BF1437BD46D2
:1024DC0080BC7047002C01400004004080B487B0E1
:1024EC0000AFF860B9607A60FB681B6A7B61FB68BF
:1024FC001B6A23F00102FB681A62FB689B693B6153
:10250C003B6923F0F0033B617B681B013A69134381
:10251C003B617B6923F00A037B617A69BB681343D7
:10252C007B61FB683A699A61FB687A691A6200BF41
:10253C001C37BD4680BC704780B487B000AFF860D4
:10254C00B9607A60FB681B6A7B61FB681B6A23F0CD
:10255C001002FB681A62FB689B693B613B6923F4C0
:10256C0070433B617B681B033A6913433B617B6996
:10257C0023F0A0037B61BB681B017A6913437B6169
:10258C00FB683A699A61FB687A691A6200BF1C376A
:10259C00BD4680BC704780B485B000AF78603960B0
:1025AC007B689B68FB60FB6823F07003FB603A68F8
:1025BC00FB68134343F00703FB607B68FA689A607F
:1025CC0000BF1437BD4680BC704780B487B000AFE5
:1025DC00F860B9607A603B60FB689B687B617B69E3
:1025EC0023F47F437B613B681A027B681A43BB6808
:1025FC0013437A6913437B61FB687A699A6000BF65
:10260C001C37BD4680BC704780B485B000AF786085
:10261C0039607B6893F83C30012B01D1022341E0F7
:10262C007B68012283F83C207B68022283F83D20E2
:10263C007B681B685B68FB607B681B689B68BB6086
:10264C00FB6823F07003FB603B681B68FA6813435C
:10265C00FB607B681B68FA685A607B681B68144ACD
:10266C00934209D07B681B68B3F1804F04D07B6820
:10267C001B68104A93420CD1BB6823F08003BB60EB
:10268C003B685B68BA681343BB607B681B68BA68BD
:10269C009A607B68012283F83D207B68002283F8D6
:1026AC003C20002318461437BD4680BC704700BF41
:1026BC00002C01400004004080B483B000AF78606F
:1026CC0000BF0C37BD4680BC704780B483B000AFF0
:1026DC00786000BF0C37BD4680BC704770B50026D3
:1026EC000C4D0D4C641BA410A64209D100F022F82D
:1026FC0000260A4D0A4C641BA410A64205D170BDDD
:10270C0055F8043B98470136EEE755F8043B9847DB
:10271C000136F2E78C2700088C2700088C2700086C
:10272C009027000803460244934200D1704703F8F7
:10273C00011BF9E7F8B500BFF8BC08BC9E46704712
:0C274C00F8B500BFF8BC08BC9E46704702
:102758000100000002000000030000000400000067
:102768000000000000000000010203040607080939
:1027780002030405060708090A0B0C0D0E0F1010BA
:04278800010200004A
:04278C00310100080F
:042790000D0100082F
:10279400E7C39999818199990024F40010000000FD
:0427A4000100000030
:04000005080010DD02
:00000001FF
