:020000040800F2
:10000000002800200D1000089D0F0008A30F000815
:10001000A90F0008AF0F0008B50F0008000000008E
:10002000000000000000000000000000BB0F0008FE
:10003000C70F000800000000D30F0008DF0F000802
:1000400055100008551000085510000855100008FC
:1000500055100008551000085510000855100008EC
:1000600055100008551000085510000855100008DC
:1000700055100008551000085510000855100008CC
:1000800055100008551000085510000855100008BC
:1000900055100008551000085510000855100008AC
:1000A000551000085510000855100008551000089C
:1000B000ED0F000855100008000000005510000862
:1000C0005510000800000000000000005510000856
:1000D0000000000055100008551000080000000046
:1000E00055100008551000085510000800000000C9
:1000F0000000000000000000000000000000000000
:0C01000000000000000000005FF808F1A3
:10010C0010B5054C237833B9044B13B10448AFF345
:10011C0000800123237010BD14000020000000009B
:10012C007026000808B5034B1BB103490348AFF315
:10013C00008008BD00000000180000207026000898
:10014C0080B500AF00224FF40071144801F068FA3A
:10015C0000224FF48071114801F062FA00228021D4
:10016C000E4801F05DFA002240210C4801F058FACB
:10017C0000222021094801F053FA002210210748DF
:10018C0001F04EFA00220821044801F049FA00223D
:10019C000421024801F044FA00BF80BD000C01406C
:1001AC0080B500AF00220221144801F039FA002278
:1001BC000421124801F034FA002208210F4801F002
:1001CC002FFA002210210D4801F02AFA00222021DA
:1001DC000A4801F025FA00224021084801F020FAD3
:1001EC0000228021054801F01BFA00224FF48041C7
:1001FC00024801F015FA00BF80BD00BF00080140A5
:10020C0080B582B000AF0346FB71FB7903F00103AC
:10021C00002B04D0012202212D4801F001FAFB79B8
:10022C005B08DBB203F00103002B04D00122042194
:10023C00274801F0F5F9FB799B08DBB203F00103C9
:10024C00002B04D001220821214801F0E9F9FB79A7
:10025C00DB08DBB203F00103002B04D001221021D8
:10026C001B4801F0DDF9FB791B09DBB203F001033C
:10027C00002B04D001222021154801F0D1F9FB7983
:10028C005B09DBB203F00103002B04D001224021F7
:10029C000F4801F0C5F9FB799B09DBB203F00103B0
:1002AC00002B04D001228021094801F0B9F9FB7917
:1002BC00DB09DBB203F00103002B05D001224FF464
:1002CC008041034801F0ACF900BF0837BD4680BD42
:1002DC000008014080B582B000AF7860FFF730FFB6
:1002EC00FFF75EFF324A7B6813441B781846FFF712
:1002FC0087FF7B68072B55D801A252F823F000BF6B
:10030C002D0300083F030008510300086103000897
:10031C00710300088103000891030008A103000881
:10032C0001224FF40071234801F07AF901237B601C
:10033C0039E001224FF480711E4801F071F902235B
:10034C007B6030E0012280211A4801F069F9032317
:10035C007B6028E001224021164801F061F904235A
:10036C007B6020E001222021124801F059F905237D
:10037C007B6018E0012210210E4801F051F9062390
:10038C007B6010E0012208210A4801F049F907239B
:10039C007B6008E001220421064801F041F90023AA
:1003AC007B6000E000BF00BF0837BD4680BD00BFCA
:1003BC0000000020000C014080B582B000AF7860D6
:1003CC0039607B68002B2AD101224FF40051CE48B2
:1003DC0001F026F901224FF48051CB4801F020F9AD
:1003EC0001224FF40061C84801F01AF901224FF4C0
:1003FC008061C54801F014F901224FF40071C24824
:10040C0001F00EF901224FF48071BF4801F008F998
:10041C0001224FF40041BD4801F002F9D3E17B68A1
:10042C00012B40F0D0813B68092B2AD100224FF4DC
:10043C000051B54801F0F4F800224FF48051B24855
:10044C0001F0EEF800224FF40061AF4801F0E8F83B
:10045C0000224FF48061AC4801F0E2F801224FF425
:10046C000071A94801F0DCF800224FF48071A64815
:10047C0001F0D6F800224FF40041A44801F0D0F866
:10048C00A1E13B68082B2AD100224FF400519E4871
:10049C0001F0C6F800224FF480519B4801F0C0F8DF
:1004AC0000224FF40061984801F0BAF800224FF492
:1004BC008061954801F0B4F800224FF40071924825
:1004CC0001F0AEF800224FF480718F4801F0A8F8CB
:1004DC0000224FF400418D4801F0A2F873E13B6813
:1004EC00072B2AD100224FF40051874801F098F8CD
:1004FC0000224FF48051844801F092F800224FF40E
:10050C000061814801F08CF801224FF480617E4833
:10051C0001F086F801224FF400717B4801F080F85D
:10052C0001224FF48071784801F07AF801224FF4DF
:10053C000041764801F074F845E13B68062B2AD15E
:10054C0000224FF40051704801F06AF801224FF478
:10055C0080516D4801F064F800224FF400616A4844
:10056C0001F05EF800224FF48061674801F058F802
:10057C0000224FF40071644801F052F800224FF44D
:10058C008071614801F04CF800224FF400415F4843
:10059C0001F046F817E13B68052B2AD100224FF4F5
:1005AC000051594801F03CF801224FF48051564853
:1005BC0001F036F800224FF40061534801F030F896
:1005CC0000224FF48061504801F02AF801224FF4C8
:1005DC0000714D4801F024F800224FF480714A4814
:1005EC0001F01EF800224FF40041484801F018F8C1
:1005FC00E9E03B68042B2AD101224FF40051424818
:10060C0001F00EF800224FF480513F4801F008F839
:10061C0000224FF400613C4801F002F801224FF433
:10062C008061394800F0FCFF01224FF4007136481C
:10063C0000F0F6FF00224FF48071334800F0F0FF19
:10064C0000224FF40041314800F0EAFFBBE03B6868
:10065C00032B2AD100224FF400512B4800F0E0FF6D
:10066C0000224FF48051284800F0DAFF00224FF4AA
:10067C000061254800F0D4FF00224FF4806122482D
:10068C0000F0CEFF01224FF400711F4800F0C8FFAC
:10069C0001224FF480711C4800F0C2FF00224FF47D
:1006AC0000411A4800F0BCFF8DE03B68022B2FD1B3
:1006BC0000224FF40051144800F0B2FF00224FF416
:1006CC008051114800F0ACFF01224FF400610E483C
:1006DC0000F0A6FF00224FF480610B4800F0A0FF51
:1006EC0000224FF40071084800F09AFF01224FF4E9
:1006FC008071054800F094FF00224FF4004103483C
:10070C0000F08EFF5FE000BF00080140000C0140CC
:10071C003B68012B2AD101224FF400512C4800F0E8
:10072C007FFF00224FF48051294800F079FF00220E
:10073C004FF40061264800F073FF01224FF48061F2
:10074C00234800F06DFF01224FF40071204800F0A7
:10075C0067FF01224FF480711D4800F061FF0122F8
:10076C004FF400411B4800F05BFF2CE03B68002B72
:10077C0029D100224FF40051154800F051FF0022FE
:10078C004FF48051124800F04BFF00224FF40061EF
:10079C000F4800F045FF00224FF480610C4800F038
:1007AC003FFF00224FF40071094800F039FF00228E
:1007BC004FF48071064800F033FF01224FF40041E2
:1007CC00044800F02DFF00BF0837BD4680BD00BFB8
:1007DC0000080140000C014080B582B000AF786089
:1007EC006346C7F800C07A68032A23D801A151F8E0
:1007FC0022F000BF110800081D0800082908000895
:10080C00350800081B6919460120FFF7D5FD11E0DA
:10081C005B6919460120FFF7CFFD0BE09B69194678
:10082C000120FFF7C9FD05E0DB6919460120FFF740
:10083C00C3FD00BF00BF0837BD4680BD90B58BB06F
:10084C0000AF07F138033B6200F000FC00F092F9B6
:10085C0000F018FA00F0CAF93A4801F03FFB022008
:10086C0000F09AFA022000F0ABFA022000F0BCFA79
:10087C00022000F0CDFA00237B60334B07F110040B
:10088C000FCB84E80F000F23FB600823BB603223DF
:10089C007B624FF4FA733B602C4B1B68012B21D10C
:1008AC007B6A01337B627B6A3B2B04DD00237B621A
:1008BC00BB680133BB60BB683B2B04DD0023BB6012
:1008CC00FB680133FB60FB68172B01DD0023FB6029
:1008DC003B681F4A82FB03129210DB17D31A18468F
:1008EC0000F06EFA1B4B1B68012B0ED14FF480618C
:1008FC00194800F0ADFE3B68154A82FB0312D2107A
:10090C00DB17D31A184600F06FFA3B469C4600F0F2
:10091C0029F8124B1B68012BBED1114B1B685A1CBA
:10092C000F490A601846FFF7D5FC0D4B1B680822CF
:10093C00934202DB0A4B00221A60012000F068FA95
:10094C00AAE700BF54000020882600083C000020C5
:10095C006766666644000020000C01404C000020D5
:10096C003000002090B583B000AF6446C7F804C0D7
:10097C00E3687D4A82FB03129210DB17D31A2361C2
:10098C00E168794B83FB01239A10CB17D21A1346DB
:10099C009B0013445B00CA1A6261A368724A82FB13
:1009AC0003129210DB17D31AA361A1686E4B83FB61
:1009BC0001239A10CB17D21A13469B0013445B00E9
:1009CC00CA1AE2616368032B00F2C98001A252F8D3
:1009DC0023F000BFF10900084D0A0008A90A00081D
:1009EC00030B0008614B1B68012B40F0B180A4463F
:1009FC000020FFF7F1FE00224FF400515C4800F09C
:100A0C000FFE01224FF48041594800F009FE0122EB
:100A1C004FF48051564800F003FE01224FF4006160
:100A2C00534800F0FDFD0123636023684E4A82FBAE
:100A3C0003121211DB17D31A184600F0ADF987E038
:100A4C004A4B1B68012B40F08580A4460120FFF720
:100A5C00C3FE01224FF40051454800F0E1FD002295
:100A6C004FF48041424800F0DBFD01224FF48051ED
:100A7C003F4800F0D5FD01224FF400613C4800F0E6
:100A8C00CFFD022363602368374A82FB03121211E5
:100A9C00DB17D31A184600F07FF95BE0334B1B6869
:100AAC00012B59D1A4460220FFF796FE01224FF4E8
:100ABC0000512F4800F0B4FD01224FF480412C4826
:100ACC0000F0AEFD00224FF48051294800F0A8FD43
:100ADC0001224FF40061264800F0A2FD032363605D
:100AEC002368214A82FB03121211DB17D31A184612
:100AFC0000F052F930E01D4B1B68012B2ED1A4469F
:100B0C000320FFF769FE01224FF40051184800F052
:100B1C0087FD01224FF48041154800F081FD012230
:100B2C004FF48051124800F07BFD00224FF400611D
:100B3C000F4800F075FD0023636023680A4A82FBAE
:100B4C0003121211DB17D31A184600F025F905E031
:100B5C0000BF04E000BF02E000BF00E000BF00BF28
:100B6C000C37BD4690BD00BF67666666340000203A
:100B7C00000C014080B590B000AF07F1180328229B
:100B8C000021184601F066FD3B1D00221A605A60D8
:100B9C009A60DA601A610223BB610123BB621023E5
:100BAC00FB6200237B6307F11803184600F06AFD13
:100BBC000346002B01D000F0E9F80F237B600023E3
:100BCC00BB600023FB6000233B6100237B613B1D6A
:100BDC000021184600F0D6FF0346002B01D000F090
:100BEC00D5F800BF4037BD4680BD000080B586B04B
:100BFC0000AF07F1080300221A605A609A60DA60AD
:100C0C003B4600221A605A601D4B4FF080421A601E
:100C1C001B4B41F63F725A60194B00229A60184BDD
:100C2C000922DA60164B00221A61154B00229A61D8
:100C3C00134801F003F90346002B01D000F0A6F88D
:100C4C004FF48053BB6007F1080319460C4801F0C0
:100C5C0099FA0346002B01D000F098F800233B6072
:100C6C0000237B603B461946054801F065FC0346B2
:100C7C00002B01D000F08AF800BF1837BD4680BDAC
:100C8C005400002080B588B000AF07F1100300229B
:100C9C001A605A609A60DA60334B9B69324A43F0AF
:100CAC0010039361304B9B6903F01003FB60FB68EE
:100CBC002D4B9B692C4A43F0040393612A4B9B698F
:100CCC0003F00403BB60BB68274B9B69264A43F0C7
:100CDC0008039361244B9B6903F008037B607B68DA
:100CEC0000224FF46041214800F09AFC00224FF69C
:100CFC00FE711F4800F094FC00224FF6FF711D4856
:100D0C0000F08EFC4FF460433B6101237B610023B8
:100D1C00BB610223FB6107F110031946134800F075
:100D2C0005FB4FF6FE733B6101237B610023BB6126
:100D3C000223FB6107F1100319460D4800F0F6FA87
:100D4C004FF6FF733B6101237B610023BB610223E0
:100D5C00FB6107F110031946064800F0E7FA00BFE3
:100D6C002037BD4680BD00BF00100240001001407E
:100D7C0000080140000C014080B582B000AF7860E3
:100D8C0000F05AF800BF0837BD4680BD80B400AFF4
:100D9C0072B600BFFEE7000080B483B000AF78608D
:100DAC00054A7B681360054B00221A6000BF0C37A4
:100DBC00BD4680BC704700BF3800002034000020C6
:100DCC0080B483B000AF7860054A7B681360054B34
:100DDC0000221A6000BF0C37BD4680BC704700BFB4
:100DEC00400000203C00002080B483B000AF78604D
:100DFC00054A7B681360054B00221A6000BF0C3754
:100E0C00BD4680BC704700BF480000204400002055
:100E1C0080B483B000AF7860054A7B681360054BE3
:100E2C0000221A6000BF0C37BD4680BC704700BF63
:100E3C00500000204C00002080B400AF214B1B68F8
:100E4C00002B0BDD1F4B1B68013B1E4A13601D4B17
:100E5C001B68002B02DC1C4B01221A601B4B1B680D
:100E6C00002B0BDD194B1B68013B184A1360174B09
:100E7C001B68002B02DC164B01221A60154B1B68F9
:100E8C00002B0BDD134B1B68013B124A1360114BFB
:100E9C001B68002B02DC104B01221A600F4B1B68E5
:100EAC00002B0BDD0D4B1B68013B0C4A13600B4BED
:100EBC001B68002B02DC0A4B01221A6000BFBD46E6
:100ECC0080BC704738000020340000204000002017
:100EDC003C0000204800002044000020500000206E
:100EEC004C00002080B485B000AF154B9B69144AB0
:100EFC0043F001039361124B9B6903F00103BB6048
:100F0C00BB680F4BDB690E4A43F08053D3610C4B2B
:100F1C00DB6903F080537B607B680A4B5B68FB608A
:100F2C00FB6823F0E063FB60FB6843F08063FB60CD
:100F3C00044AFB68536000BF1437BD4680BC704741
:100F4C00001002400000014080B584B000AF786012
:100F5C007B681B68B3F1804F13D10C4BDB690B4AD8
:100F6C0043F00103D361094BDB6903F00103FB6020
:100F7C00FB68002200211C2000F0A1F91C2000F0CD
:100F8C00BAF900BF1037BD4680BD00BF001002404B
:100F9C0080B400AFFEE780B400AFFEE780B400AFD2
:100FAC00FEE780B400AFFEE780B400AFFEE780B48C
:100FBC0000AF00BFBD4680BC704780B400AF00BF1F
:100FCC00BD4680BC704780B400AF00BFBD4680BC3E
:100FDC00704780B500AF00F07FF800BF80BD000007
:100FEC0080B500AF024800F0C5FF00BF80BD00BF58
:100FFC005400002080B400AF00BFBD4680BC7047D9
:10100C00FFF7F8FF0B480C490C4A002302E0D458B8
:10101C00C4500433C4188C42F9D3094A094C002338
:10102C0001E013600432A242FBD301F0EFFAFFF7A8
:10103C0005FC70470000002014000020C4260008A6
:10104C0014000020A0000020FEE7000080B500AFD7
:10105C00084B1B68074A43F010031360032000F091
:10106C0023F90F2000F008F8FFF73CFF0023184687
:10107C0080BD00BF0020024080B582B000AF786018
:10108C00124B1A68124B1B7819464FF47A73B3FB48
:10109C00F1F3B2FBF3F3184600F03BF90346002BD7
:1010AC0001D001230EE07B680F2B0AD8002279684F
:1010BC004FF0FF3000F003F9064A7B681360002301
:1010CC0000E0012318460837BD4680BD080000200B
:1010DC00100000200C00002080B400AF054B1B78E2
:1010EC001A46054B1B681344034A136000BFBD46E8
:1010FC0080BC7047100000209C00002080B400AF22
:10110C00024B1B681846BD4680BC70479C000020F3
:10111C0080B485B000AF78607B6803F00703FB6098
:10112C000C4BDB68BB60BA684FF6FF031340BB6027
:10113C00FB681A02BB68134343F0BF6343F40033EC
:10114C00BB60044ABB68D36000BF1437BD4680BC8B
:10115C00704700BF00ED00E080B400AF044BDB68CB
:10116C001B0A03F007031846BD4680BC704700BF3E
:10117C0000ED00E080B483B000AF0346FB7197F93B
:10118C000730002B0BDBFB7903F01F02064997F9A4
:10119C0007305B09012000FA02F241F8232000BF5E
:1011AC000C37BD4680BC704700E100E080B483B0D2
:1011BC0000AF03463960FB7197F90730002B0ADB4F
:1011CC003B68DAB20C4997F907301201D2B20B44E2
:1011DC0083F800230AE03B68DAB20849FB7903F094
:1011EC000F03043B1201D2B20B441A7600BF0C372A
:1011FC00BD4680BC704700BF00E100E000ED00E0A0
:10120C0080B489B000AFF860B9607A60FB6803F015
:10121C000703FB61FB69C3F10703042B28BF0423FD
:10122C00BB61FB690433062B02D9FB69033B00E06D
:10123C0000237B614FF0FF32BB6902FA03F3DA4300
:10124C00BB681A407B699A404FF0FF317B6901FA09
:10125C0003F3D9437B680B40134318462437BD4630
:10126C0080BC704780B582B000AF78607B68013B72
:10127C00B3F1807F01D301230FE00A4A7B68013B65
:10128C0053600F214FF0FF30FFF790FF054B00220A
:10129C009A60044B07221A60002318460837BD4693
:1012AC0080BD00BF10E000E080B582B000AF786078
:1012BC007868FFF72DFF00BF0837BD4680BD80B5AD
:1012CC0086B000AF0346B9607A60FB7300237B6184
:1012DC00FFF742FF78617A68B9687869FFF790FF89
:1012EC00024697F90F3011461846FFF75FFF00BF13
:1012FC001837BD4680BD80B582B000AF0346FB7188
:10130C0097F907301846FFF735FF00BF0837BD4681
:10131C0080BD80B582B000AF78607868FFF7A2FF1F
:10132C00034618460837BD4680BD000080B48BB01C
:10133C0000AF7860396000237B6200233B6248E198
:10134C0001227B6A02FA03F3FB613B681B68FA69B2
:10135C001340BB61BA69FB699A4240F037813B6824
:10136C005B68A34A93425ED0A14A934275D8A14AC6
:10137C00934258D09F4A93426FD89F4A934252D07F
:10138C009D4A934269D89D4A93424CD09B4A9342C2
:10139C0063D89B4A934246D0994A93425DD8122B0C
:1013AC002AD8122B59D801A252F823F03314000872
:1013BC000D1400081F1400086114000867140008BD
:1013CC006714000867140008671400086714000805
:1013DC0067140008671400086714000867140008F5
:1013EC0067140008671400086714000867140008E5
:1013FC001514000829140008824A934213D02CE0DB
:10140C003B68DB683B6229E03B68DB6804333B628A
:10141C0024E03B68DB6808333B621FE03B68DB6819
:10142C000C333B621AE03B689B68002B02D104230F
:10143C003B6213E03B689B68012B05D108233B62A0
:10144C007B68FA691A6109E008233B627B68FA69D8
:10145C005A6103E000233B6200E000BFBB69FF2B35
:10146C0001D87B6801E07B6804337B61BB69FF2B8F
:10147C0002D87B6A9B0002E07B6A083B9B003B61C5
:10148C007B691A680F213B6901FA03F3DB431A40AD
:10149C00396A3B6901FA03F31A437B691A603B68AA
:1014AC005B6803F08053002B00F09080564B9B69D7
:1014BC00554A43F001039361534B9B6903F00103BD
:1014CC00BB60BB68514A7B6A9B08023352F82330DD
:1014DC00FB607B6A03F003039B000F2202FA03F309
:1014EC00DB43FA681340FB607B68494A93420DD09A
:1014FC007B68484A934207D07B68474A934201D1A4
:10150C00022304E0032302E0012300E000237A6AB3
:10151C0002F0030292009340FA681343FB603B49CC
:10152C007B6A9B080233FA6841F823203B685B68AE
:10153C0003F48013002B06D0384B9A683749BB69EB
:10154C0013438B6006E0354B9A68BB69DB43334928
:10155C0013408B603B685B6803F40013002B06D0D0
:10156C002E4BDA682D49BB691343CB6006E02B4B3D
:10157C00DA68BB69DB4329491340CB603B685B6885
:10158C0003F40033002B06D0244B5A682349BB6963
:10159C0013434B6006E0214B5A68BB69DB431F4980
:1015AC0013404B603B685B6803F48033002B06D020
:1015BC001A4B1A681949BB6913430B6006E0174BA9
:1015CC001A68BB69DB43154913400B607B6A013316
:1015DC007B623B681A687B6A22FA03F3002B7FF468
:1015EC00AFAE00BF00BF2C37BD4680BC704700BFFC
:1015FC0000003210000031100000221000002110F9
:10160C0000001210000011100010024000000140F8
:10161C0000080140000C0140001001400004014092
:10162C0080B483B000AF78600B467B8013467B7030
:10163C007B78002B03D07A887B681A6103E07B8867
:10164C001A047B681A6100BF0C37BD4680BC70471A
:10165C0080B485B000AF78600B467B807B68DB681C
:10166C00FB607A88FB6813401A04FB68D9437B88BB
:10167C000B401A437B681A6100BF1437BD4680BC0F
:10168C007047000080B586B000AF78607B68002B97
:10169C0001D101236CE27B681B6803F00103002B72
:1016AC0000F08780924B5B6803F00C03042B0CD08A
:1016BC008F4B5B6803F00C03082B12D18C4B5B68CF
:1016CC0003F48033B3F5803F0BD1894B1B6803F4D3
:1016DC000033002B6CD07B685B68002B68D1012336
:1016EC0046E27B685B68B3F5803F06D1804B1B6894
:1016FC007F4A43F4803313602EE07B685B68002BD9
:10170C000CD17B4B1B687A4A23F480331360784BE3
:10171C001B68774A23F4802313601DE07B685B68A9
:10172C00B3F5A02F0CD1724B1B68714A43F4802384
:10173C0013606F4B1B686E4A43F4803313600BE0ED
:10174C006B4B1B686A4A23F480331360684B1B682D
:10175C00674A23F4802313607B685B68002B13D0EB
:10176C00FFF7CCFC386108E0FFF7C8FC02463B6988
:10177C00D31A642B01D90323FAE15D4B1B6803F4E4
:10178C000033002BF0D014E0FFF7B8FC386108E010
:10179C00FFF7B4FC02463B69D31A642B01D903232F
:1017AC00E6E1534B1B6803F40033002BF0D100E04F
:1017BC0000BF7B681B6803F00203002B63D04C4B0B
:1017CC005B6803F00C03002B0BD0494B5B6803F0F8
:1017DC000C03082B1CD1464B5B6803F48033002BA5
:1017EC0016D1434B1B6803F00203002B05D07B681A
:1017FC001B69012B01D00123BAE13D4B1B6823F07F
:10180C00F8027B685B69DB00394913430B603AE0F3
:10181C007B681B69002B20D0364B01221A60FFF726
:10182C006DFC386108E0FFF769FC02463B69D31A8E
:10183C00022B01D903239BE12D4B1B6803F0020300
:10184C00002BF0D02A4B1B6823F0F8027B685B69F5
:10185C00DB00274913430B6015E0264B00221A606E
:10186C00FFF74CFC386108E0FFF748FC02463B6987
:10187C00D31A022B01D903237AE11D4B1B6803F009
:10188C000203002BF0D17B681B6803F00803002BCC
:10189C003AD07B689B69002B19D0174B01221A6038
:1018AC00FFF72CFC386108E0FFF728FC02463B6987
:1018BC00D31A022B01D903235AE10D4B5B6A03F0B7
:1018CC000203002BF0D0012000F09AFA1CE00A4B26
:1018DC0000221A60FFF712FC38610FE0FFF70EFCD4
:1018EC0002463B69D31A022B08D9032340E100BFFF
:1018FC000010024000004242800442429E4B5B6A50
:10190C0003F00203002BE9D17B681B6803F004038E
:10191C00002B00F0A6800023FB75974BDB6903F0CE
:10192C008053002B0DD1944BDB69934A43F08053C9
:10193C00D361914BDB6903F08053BB60BB6801231F
:10194C00FB758E4B1B6803F48073002B18D18B4BEB
:10195C001B688A4A43F480731360FFF7CFFB38612E
:10196C0008E0FFF7CBFB02463B69D31A642B01D985
:10197C000323FDE0814B1B6803F48073002BF0D034
:10198C007B68DB68012B06D17B4B1B6A7A4A43F0E0
:10199C00010313622DE07B68DB68002B0CD1764BC6
:1019AC001B6A754A23F001031362734B1B6A724A5C
:1019BC0023F0040313621CE07B68DB68052B0CD15D
:1019CC006D4B1B6A6C4A43F0040313626A4B1B6A2F
:1019DC00694A43F0010313620BE0674B1B6A664ACA
:1019EC0023F001031362644B1B6A634A23F0040364
:1019FC0013627B68DB68002B15D0FFF77FFB386127
:101A0C000AE0FFF77BFB02463B69D31A41F28832AE
:101A1C00934201D90323ABE0574B1B6A03F002033B
:101A2C00002BEED014E0FFF769FB38610AE0FFF7FA
:101A3C0065FB02463B69D31A41F28832934201D9C5
:101A4C00032395E04C4B1B6A03F00203002BEED1F1
:101A5C00FB7D012B05D1484BDB69474A23F08053B2
:101A6C00D3617B68DB69002B00F08180424B5B68A3
:101A7C0003F00C03082B61D07B68DB69022B46D189
:101A8C003F4B00221A60FFF739FB386108E0FFF783
:101A9C0035FB02463B69D31A022B01D9032367E0BD
:101AAC00354B1B6803F00073002BF0D17B681B6A6D
:101ABC00B3F5803F08D1304B5B6823F400327B6870
:101ACC009B682D4913434B602B4B5B6823F47412BA
:101ADC007B68196A7B685B6A0B43274913434B602D
:101AEC00274B01221A60FFF709FB386108E0FFF76A
:101AFC0005FB02463B69D31A022B01D9032337E0BD
:101B0C001D4B1B6803F00073002BF0D02FE01C4B17
:101B1C0000221A60FFF7F2FA386108E0FFF7EEFADC
:101B2C0002463B69D31A022B01D9032320E0124B46
:101B3C001B6803F00073002BF0D118E07B68DB69A5
:101B4C00012B01D1012313E00B4B5B68FB60FB689D
:101B5C0003F480327B681B6A9A4206D1FB6803F45B
:101B6C0070127B685B6A9A4201D0012300E000236B
:101B7C0018461837BD4680BD00100240007000406A
:101B8C006000424280B584B000AF786039607B68F9
:101B9C00002B01D10123D0E06A4B1B6803F0070333
:101BAC003A689A4210D9674B1B6823F007026549C3
:101BBC003B6813430B60634B1B6803F007033A68E5
:101BCC009A4201D00123B8E07B681B6803F0020342
:101BDC00002B20D07B681B6803F00403002B05D07E
:101BEC00594B5B68584A43F4E06353607B681B684D
:101BFC0003F00803002B05D0534B5B68524A43F4A7
:101C0C0060535360504B5B6823F0F0027B689B6819
:101C1C004D4913434B607B681B6803F00103002B99
:101C2C0040D07B685B68012B07D1474B1B6803F4E2
:101C3C000033002B15D101237FE07B685B68022BFE
:101C4C0007D1414B1B6803F00073002B09D1012312
:101C5C0073E03D4B1B6803F00203002B01D1012301
:101C6C006BE0394B5B6823F003027B685B68364999
:101C7C0013434B60FFF742FAF8600AE0FFF73EFAB5
:101C8C000246FB68D31A41F28832934201D90323EE
:101C9C0053E02D4B5B6803F00C027B685B689B0088
:101CAC009A42EBD1274B1B6803F007033A689A4220
:101CBC0010D2244B1B6823F0070222493B681343C4
:101CCC000B60204B1B6803F007033A689A4201D063
:101CDC00012332E07B681B6803F00403002B08D05F
:101CEC00194B5B6823F4E0627B68DB68164913438D
:101CFC004B607B681B6803F00803002B09D0124B68
:101D0C005B6823F460527B681B69DB000E4913434C
:101D1C004B6000F021F802460B4B5B681B0903F08B
:101D2C000F030A49CB5C22FA03F3094A1360094BEF
:101D3C001B681846FFF7A0F9002318461037BD465C
:101D4C0080BD00BF00200240001002409826000811
:101D5C00080000200C00002080B487B000AF0023E6
:101D6C00FB600023BB6000237B6100237B600023AE
:101D7C003B611E4B5B68FB60FB6803F00C03042BA0
:101D8C0002D0082B03D027E0194B3B6127E0FB68FE
:101D9C009B0C03F00F03174AD35C7B60FB6803F4C6
:101DAC008033002B10D0114B5B685B0C03F00103EC
:101DBC00114AD35CBB607B680D4A02FB03F2BB6823
:101DCC00B2FBF3F37B6104E07B680C4A02FB03F388
:101DDC007B617B693B6102E0054B3B6100BF3B696A
:101DEC0018461C37BD4680BC704700BF001002402F
:101DFC0000127A00A8260008B826000800093D0049
:101E0C0080B485B000AF78600A4B1B680A4AA2FB0D
:101E1C0003235B0A7A6802FB03F3FB6000BFFB68D9
:101E2C005A1EFA60002BF9D100BF00BF1437BD4613
:101E3C0080BC704708000020D34D621080B582B082
:101E4C0000AF78607B68002B01D1012341E07B68F7
:101E5C0093F83D30DBB2002B06D17B68002283F86F
:101E6C003C207868FFF770F87B68022283F83D20ED
:101E7C007B681A687B6804331946104600F06EFACA
:101E8C007B68012283F846207B68012283F83E2080
:101E9C007B68012283F83F207B68012283F8402075
:101EAC007B68012283F841207B68012283F8422061
:101EBC007B68012283F843207B68012283F844204D
:101ECC007B68012283F845207B68012283F83D2042
:101EDC00002318460837BD4680BD000080B485B08D
:101EEC0000AF78607B6893F83D30DBB2012B01D0FA
:101EFC00012335E07B68022283F83D207B681B6858
:101F0C00DA687B681B6842F00102DA607B681B6848
:101F1C00164A934209D07B681B68B3F1804F04D0FA
:101F2C007B681B68124A934211D17B681B689B68C3
:101F3C0003F00703FB60FB68062B10D07B681B6863
:101F4C001A687B681B6842F001021A6007E07B6824
:101F5C001B681A687B681B6842F001021A60002338
:101F6C0018461437BD4680BC704700BF002C01409A
:101F7C000004004080B582B000AF78607B681B68BD
:101F8C001B6903F00203022B22D17B681B68DB6800
:101F9C0003F00203022B1BD17B681B686FF002025B
:101FAC001A617B6801221A777B681B689B6903F0B6
:101FBC000303002B03D0786800F0B4F905E07868CF
:101FCC0000F0A7F9786800F0B6F97B6800221A7760
:101FDC007B681B681B6903F00403042B22D17B680C
:101FEC001B68DB6803F00403042B1BD17B681B68A4
:101FFC006FF004021A617B6802221A777B681B68F7
:10200C009B6903F44073002B03D0786800F08AF9C5
:10201C0005E0786800F07DF9786800F08CF97B6851
:10202C0000221A777B681B681B6903F00803082BD6
:10203C0022D17B681B68DB6803F00803082B1BD1DB
:10204C007B681B686FF008021A617B6804221A77A0
:10205C007B681B68DB6903F00303002B03D07868F3
:10206C0000F060F905E0786800F053F9786800F04A
:10207C0062F97B6800221A777B681B681B6903F086
:10208C001003102B22D17B681B68DB6803F0100354
:10209C00102B1BD17B681B686FF010021A617B68D8
:1020AC0008221A777B681B68DB6903F44073002BEA
:1020BC0003D0786800F036F905E0786800F029F96B
:1020CC00786800F038F97B6800221A777B681B6807
:1020DC001B6903F00103012B0ED17B681B68DB68C5
:1020EC0003F00103012B07D17B681B686FF0010221
:1020FC001A617868FEF740FE7B681B681B6903F069
:10210C008003802B0ED17B681B68DB6803F0800397
:10211C00802B07D17B681B686FF080021A6178688E
:10212C0000F06BFA7B681B681B6903F04003402BC3
:10213C000ED17B681B68DB6803F04003402B07D192
:10214C007B681B686FF040021A61786800F0FCF83D
:10215C007B681B681B6903F02003202B0ED17B6866
:10216C001B68DB6803F02003202B07D17B681B68FE
:10217C006FF020021A61786800F036FA00BF083759
:10218C00BD4680BD80B584B000AF78603960002357
:10219C00FB737B6893F83C30012B01D10223B4E034
:1021AC007B68012283F83C207B68022283F83D2067
:1021BC007B681B689B68BB60BB6823F07703BB60C4
:1021CC00BB6823F47F43BB607B681B68BA689A606A
:1021DC003B681B68B3F5005F3ED0B3F5005F00F2BF
:1021EC008780B3F5805F00F08680B3F5805F7FD881
:1021FC00702B1AD0702B7BD8602B50D0602B77D8DB
:10220C00502B3CD0502B73D8402B58D0402B6FD830
:10221C00302B64D0302B6BD8202B60D0202B67D880
:10222C00002B5CD0102B5AD062E07B6818683B689E
:10223C0099683B685A683B68DB6800F05EF97B681C
:10224C001B689B68BB60BB6843F07703BB607B6813
:10225C001B68BA689A604FE07B6818683B6899689D
:10226C003B685A683B68DB6800F047F97B681B6881
:10227C009A687B681B6842F480429A603CE07B68F9
:10228C0018683B6859683B68DB681A4600F0BEF872
:10229C007B681B685021184600F015F92CE07B6810
:1022AC0018683B6859683B68DB681A4600F0DCF834
:1022BC007B681B686021184600F005F91CE07B6800
:1022CC0018683B6859683B68DB681A4600F09EF852
:1022DC007B681B684021184600F0F5F80CE07B6821
:1022EC001A683B681B681946104600F0ECF803E0CE
:1022FC000123FB7300E000BF7B68012283F83D20C3
:10230C007B68002283F83C20FB7B18461037BD46C7
:10231C0080BD80B483B000AF786000BF0C37BD4681
:10232C0080BC704780B483B000AF786000BF0C37BE
:10233C00BD4680BC704780B483B000AF786000BFEE
:10234C000C37BD4680BC704780B483B000AF78605A
:10235C0000BF0C37BD4680BC7047000080B485B010
:10236C0000AF786039607B681B68FB607B68254A2E
:10237C00934207D07B68B3F1804F03D07B68224A2D
:10238C00934208D1FB6823F07003FB603B685B68E9
:10239C00FA681343FB607B681A4A934207D07B6848
:1023AC00B3F1804F03D07B68174A934208D1FB6886
:1023BC0023F44073FB603B68DB68FA681343FB60F3
:1023CC00FB6823F080023B685B691343FB607B680E
:1023DC00FA681A603B689A687B68DA623B681A682C
:1023EC007B689A627B68074A934203D13B681A69FF
:1023FC007B681A637B6801225A6100BF1437BD46A3
:10240C0080BC7047002C01400004004080B487B0B1
:10241C0000AFF860B9607A60FB681B6A7B61FB688F
:10242C001B6A23F00102FB681A62FB689B693B6123
:10243C003B6923F0F0033B617B681B013A69134352
:10244C003B617B6923F00A037B617A69BB681343A8
:10245C007B61FB683A699A61FB687A691A6200BF12
:10246C001C37BD4680BC704780B487B000AFF860A5
:10247C00B9607A60FB681B6A7B61FB681B6A23F09E
:10248C001002FB681A62FB689B693B613B6923F491
:10249C0070433B617B681B033A6913433B617B6967
:1024AC0023F0A0037B61BB681B017A6913437B613A
:1024BC00FB683A699A61FB687A691A6200BF1C373B
:1024CC00BD4680BC704780B485B000AF7860396081
:1024DC007B689B68FB60FB6823F07003FB603A68C9
:1024EC00FB68134343F00703FB607B68FA689A6050
:1024FC0000BF1437BD4680BC704780B487B000AFB6
:10250C00F860B9607A603B60FB689B687B617B69B3
:10251C0023F47F437B613B681A027B681A43BB68D8
:10252C0013437A6913437B61FB687A699A6000BF35
:10253C001C37BD4680BC704780B485B000AF786056
:10254C0039607B6893F83C30012B01D1022341E0C8
:10255C007B68012283F83C207B68022283F83D20B3
:10256C007B681B685B68FB607B681B689B68BB6057
:10257C00FB6823F07003FB603B681B68FA6813432D
:10258C00FB607B681B68FA685A607B681B68144A9E
:10259C00934209D07B681B68B3F1804F04D07B68F1
:1025AC001B68104A93420CD1BB6823F08003BB60BC
:1025BC003B685B68BA681343BB607B681B68BA688E
:1025CC009A607B68012283F83D207B68002283F8A7
:1025DC003C20002318461437BD4680BC704700BF12
:1025EC00002C01400004004080B483B000AF786040
:1025FC0000BF0C37BD4680BC704780B483B000AFC1
:10260C00786000BF0C37BD4680BC704770B50026A3
:10261C000C4D0D4C641BA410A64209D100F022F8FD
:10262C0000260A4D0A4C641BA410A64205D170BDAD
:10263C0055F8043B98470136EEE755F8043B9847AC
:10264C000136F2E7BC260008BC260008BC260008B0
:10265C00C026000803460244934200D1704703F899
:10266C00011BF9E7F8B500BFF8BC08BC9E467047E3
:0C267C00F8B500BFF8BC08BC9E467047D3
:102688000100000002000000030000000400000038
:10269800000000000000000001020304060708090A
:1026A80002030405060708090A0B0C0D0E0F10108B
:0426B800010200001B
:0426BC0031010008E0
:0426C0000D01000800
:1026C400E7C39999818199990024F40010000000CE
:0426D4000100000001
:040000050800100DD2
:00000001FF
